{
  "address": "0x5FbDB2315678afecb367f032d93F642f64180aa3",
  "abi": [
    {
      "anonymous": false,
      "inputs": [
        {
          "indexed": true,
          "internalType": "address",
          "name": "userAddress",
          "type": "address"
        },
        {
          "indexed": true,
          "internalType": "address",
          "name": "serviceProviderAddress",
          "type": "address"
        }
      ],
      "name": "AccessGranted",
      "type": "event"
    },
    {
      "anonymous": false,
      "inputs": [
        {
          "indexed": true,
          "internalType": "address",
          "name": "userAddress",
          "type": "address"
        },
        {
          "indexed": true,
          "internalType": "address",
          "name": "serviceProviderAddress",
          "type": "address"
        }
      ],
      "name": "AccessRevoked",
      "type": "event"
    },
    {
      "anonymous": false,
      "inputs": [
        {
          "indexed": true,
          "internalType": "address",
          "name": "serviceProviderAddress",
          "type": "address"
        }
      ],
      "name": "ServiceProviderAdded",
      "type": "event"
    },
    {
      "anonymous": false,
      "inputs": [
        {
          "indexed": true,
          "internalType": "address",
          "name": "serviceProviderAddress",
          "type": "address"
        }
      ],
      "name": "ServiceProviderRemoved",
      "type": "event"
    },
    {
      "anonymous": false,
      "inputs": [
        {
          "indexed": true,
          "internalType": "address",
          "name": "userAddress",
          "type": "address"
        }
      ],
      "name": "UserAdded",
      "type": "event"
    },
    {
      "anonymous": false,
      "inputs": [
        {
          "indexed": true,
          "internalType": "address",
          "name": "userAddress",
          "type": "address"
        }
      ],
      "name": "UserUpdated",
      "type": "event"
    },
    {
      "inputs": [
        {
          "internalType": "address",
          "name": "_serviceProviderAddress",
          "type": "address"
        },
        {
          "internalType": "string",
          "name": "_serviceProviderName",
          "type": "string"
        }
      ],
      "name": "addServiceProvider",
      "outputs": [],
      "stateMutability": "nonpayable",
      "type": "function"
    },
    {
      "inputs": [
        {
          "internalType": "string",
          "name": "_firstName",
          "type": "string"
        },
        {
          "internalType": "string",
          "name": "_middleName",
          "type": "string"
        },
        {
          "internalType": "string",
          "name": "_lastName",
          "type": "string"
        },
        {
          "internalType": "string",
          "name": "_email",
          "type": "string"
        },
        {
          "internalType": "string",
          "name": "_dob",
          "type": "string"
        },
        {
          "internalType": "string",
          "name": "_pno",
          "type": "string"
        },
        {
          "internalType": "string",
          "name": "_physicalAddress",
          "type": "string"
        }
      ],
      "name": "addUser",
      "outputs": [],
      "stateMutability": "nonpayable",
      "type": "function"
    },
    {
      "inputs": [],
      "name": "getUserAccessList",
      "outputs": [
        {
          "internalType": "address[]",
          "name": "",
          "type": "address[]"
        }
      ],
      "stateMutability": "view",
      "type": "function"
    },
    {
      "inputs": [
        {
          "internalType": "address",
          "name": "_userAddress",
          "type": "address"
        }
      ],
      "name": "getUserDetails",
      "outputs": [
        {
          "internalType": "string",
          "name": "user_FirstName",
          "type": "string"
        },
        {
          "internalType": "string",
          "name": "user_MiddleName",
          "type": "string"
        },
        {
          "internalType": "string",
          "name": "user_LastName",
          "type": "string"
        },
        {
          "internalType": "string",
          "name": "user_Email",
          "type": "string"
        },
        {
          "internalType": "string",
          "name": "user_dob",
          "type": "string"
        },
        {
          "internalType": "string",
          "name": "user_pno",
          "type": "string"
        },
        {
          "internalType": "string",
          "name": "userPhysicalAddress",
          "type": "string"
        }
      ],
      "stateMutability": "view",
      "type": "function"
    },
    {
      "inputs": [
        {
          "internalType": "address",
          "name": "_serviceProviderAddress",
          "type": "address"
        }
      ],
      "name": "grantAccess",
      "outputs": [],
      "stateMutability": "nonpayable",
      "type": "function"
    },
    {
      "inputs": [
        {
          "internalType": "address",
          "name": "_serviceProviderAddress",
          "type": "address"
        }
      ],
      "name": "removeServiceProvider",
      "outputs": [],
      "stateMutability": "nonpayable",
      "type": "function"
    },
    {
      "inputs": [
        {
          "internalType": "address",
          "name": "_serviceProviderAddress",
          "type": "address"
        }
      ],
      "name": "revokeAccess",
      "outputs": [],
      "stateMutability": "nonpayable",
      "type": "function"
    },
    {
      "inputs": [
        {
          "internalType": "uint256",
          "name": "",
          "type": "uint256"
        }
      ],
      "name": "serviceProviderAddresses",
      "outputs": [
        {
          "internalType": "address",
          "name": "",
          "type": "address"
        }
      ],
      "stateMutability": "view",
      "type": "function"
    },
    {
      "inputs": [
        {
          "internalType": "address",
          "name": "",
          "type": "address"
        }
      ],
      "name": "serviceProviders",
      "outputs": [
        {
          "internalType": "address",
          "name": "serviceProviderAddress",
          "type": "address"
        },
        {
          "internalType": "string",
          "name": "serviceProviderName",
          "type": "string"
        },
        {
          "internalType": "bool",
          "name": "isRegistered",
          "type": "bool"
        }
      ],
      "stateMutability": "view",
      "type": "function"
    },
    {
      "inputs": [
        {
          "internalType": "uint256",
          "name": "index",
          "type": "uint256"
        }
      ],
      "name": "serviceProvidersByIndex",
      "outputs": [
        {
          "internalType": "address",
          "name": "",
          "type": "address"
        }
      ],
      "stateMutability": "view",
      "type": "function"
    },
    {
      "inputs": [],
      "name": "serviceProvidersCount",
      "outputs": [
        {
          "internalType": "uint256",
          "name": "",
          "type": "uint256"
        }
      ],
      "stateMutability": "view",
      "type": "function"
    },
    {
      "inputs": [
        {
          "internalType": "string",
          "name": "_firstName",
          "type": "string"
        },
        {
          "internalType": "string",
          "name": "_middleName",
          "type": "string"
        },
        {
          "internalType": "string",
          "name": "_lastName",
          "type": "string"
        },
        {
          "internalType": "string",
          "name": "_email",
          "type": "string"
        },
        {
          "internalType": "string",
          "name": "_dob",
          "type": "string"
        },
        {
          "internalType": "string",
          "name": "_pno",
          "type": "string"
        },
        {
          "internalType": "string",
          "name": "_physicalAddress",
          "type": "string"
        }
      ],
      "name": "updateUser",
      "outputs": [],
      "stateMutability": "nonpayable",
      "type": "function"
    },
    {
      "inputs": [
        {
          "internalType": "address",
          "name": "",
          "type": "address"
        }
      ],
      "name": "users",
      "outputs": [
        {
          "internalType": "string",
          "name": "user_FirstName",
          "type": "string"
        },
        {
          "internalType": "string",
          "name": "user_MiddleName",
          "type": "string"
        },
        {
          "internalType": "string",
          "name": "user_LastName",
          "type": "string"
        },
        {
          "internalType": "string",
          "name": "user_Email",
          "type": "string"
        },
        {
          "internalType": "string",
          "name": "user_dob",
          "type": "string"
        },
        {
          "internalType": "string",
          "name": "user_pno",
          "type": "string"
        },
        {
          "internalType": "string",
          "name": "userPhysicalAddress",
          "type": "string"
        },
        {
          "internalType": "bool",
          "name": "isUserSet",
          "type": "bool"
        }
      ],
      "stateMutability": "view",
      "type": "function"
    }
  ],
  "transactionHash": "0x71128e19a59f99261ed50124bd34787c36372eb57f67eafa0634e75c0deff3f0",
  "args": [],
  "numDeployments": 1,
  "solcInputHash": "46563665d2f8e5def8a92d275594f602",
  "bytecode": "0x608060405234801561001057600080fd5b50612eb4806100206000396000f3fe608060405234801561001057600080fd5b50600436106100cf5760003560e01c8063894595471161008c578063c3392b1611610066578063c3392b1614610215578063cc3d967b14610233578063fb155e8914610269578063fe38bd7014610299576100cf565b806389459547146101a6578063a87430ba146101c2578063ad44e42c146101f9576100cf565b80630ae5e739146100d4578063444d0df1146100f05780636a0f4dd01461010c5780636eaf50e51461013e5780638142b0e61461015a57806385e685311461018a575b600080fd5b6100ee60048036038101906100e99190611ff5565b6102b7565b005b61010a60048036038101906101059190611ff5565b610597565b005b61012660048036038101906101219190611ff5565b6108a1565b604051610135939291906120dc565b60405180910390f35b6101586004803603810190610153919061224f565b610980565b005b610174600480360381019061016f91906122e1565b610b49565b604051610181919061230e565b60405180910390f35b6101a4600480360381019061019f9190611ff5565b610cad565b005b6101c060048036038101906101bb9190612329565b610f8c565b005b6101dc60048036038101906101d79190611ff5565b6110b7565b6040516101f098979695949392919061248f565b60405180910390f35b610213600480360381019061020e9190612329565b6114c4565b005b61021d611623565b60405161022a919061254d565b60405180910390f35b61024d60048036038101906102489190611ff5565b611629565b6040516102609796959493929190612568565b60405180910390f35b610283600480360381019061027e91906122e1565b611cde565b604051610290919061230e565b60405180910390f35b6102a1611d1d565b6040516102ae91906126c6565b60405180910390f35b600260003373ffffffffffffffffffffffffffffffffffffffff1673ffffffffffffffffffffffffffffffffffffffff16815260200190815260200160002060070160009054906101000a900460ff16610346576040517f08c379a000000000000000000000000000000000000000000000000000000000815260040161033d90612734565b60405180910390fd5b600360008273ffffffffffffffffffffffffffffffffffffffff1673ffffffffffffffffffffffffffffffffffffffff16815260200190815260200160002060020160009054906101000a900460ff166103d5576040517f08c379a00000000000000000000000000000000000000000000000000000000081526004016103cc906127a0565b60405180910390fd5b600260003373ffffffffffffffffffffffffffffffffffffffff1673ffffffffffffffffffffffffffffffffffffffff16815260200190815260200160002060080160008273ffffffffffffffffffffffffffffffffffffffff1673ffffffffffffffffffffffffffffffffffffffff16815260200190815260200160002060009054906101000a900460ff16156104a2576040517f08c379a00000000000000000000000000000000000000000000000000000000081526004016104999061280c565b60405180910390fd5b6001600260003373ffffffffffffffffffffffffffffffffffffffff1673ffffffffffffffffffffffffffffffffffffffff16815260200190815260200160002060080160008373ffffffffffffffffffffffffffffffffffffffff1673ffffffffffffffffffffffffffffffffffffffff16815260200190815260200160002060006101000a81548160ff0219169083151502179055508073ffffffffffffffffffffffffffffffffffffffff163373ffffffffffffffffffffffffffffffffffffffff167f9f520b3bfc56d06f7065d10b4683b3f57ac8895d5026cd176dee95ce1454cb8d60405160405180910390a350565b6000600360008373ffffffffffffffffffffffffffffffffffffffff1673ffffffffffffffffffffffffffffffffffffffff16815260200190815260200160002090508060020160009054906101000a900460ff1661062b576040517f08c379a0000000000000000000000000000000000000000000000000000000008152600401610622906127a0565b60405180910390fd5b600360008373ffffffffffffffffffffffffffffffffffffffff1673ffffffffffffffffffffffffffffffffffffffff168152602001908152602001600020600080820160006101000a81549073ffffffffffffffffffffffffffffffffffffffff02191690556001820160006106a29190611f26565b6002820160006101000a81549060ff021916905550506000808154809291906106ca9061285b565b919050555060005b600180549050811015610859578273ffffffffffffffffffffffffffffffffffffffff166001828154811061070a57610709612884565b5b9060005260206000200160009054906101000a900473ffffffffffffffffffffffffffffffffffffffff1673ffffffffffffffffffffffffffffffffffffffff160361084657600180808054905061076291906128b3565b8154811061077357610772612884565b5b9060005260206000200160009054906101000a900473ffffffffffffffffffffffffffffffffffffffff16600182815481106107b2576107b1612884565b5b9060005260206000200160006101000a81548173ffffffffffffffffffffffffffffffffffffffff021916908373ffffffffffffffffffffffffffffffffffffffff160217905550600180548061080c5761080b6128e7565b5b6001900381819060005260206000200160006101000a81549073ffffffffffffffffffffffffffffffffffffffff02191690559055610859565b808061085190612916565b9150506106d2565b508173ffffffffffffffffffffffffffffffffffffffff167f8c8907774e957df66385c0630b7abbfc436cd160107e11d6944214489d5f865d60405160405180910390a25050565b60036020528060005260406000206000915090508060000160009054906101000a900473ffffffffffffffffffffffffffffffffffffffff16908060010180546108ea9061298d565b80601f01602080910402602001604051908101604052809291908181526020018280546109169061298d565b80156109635780601f1061093857610100808354040283529160200191610963565b820191906000526020600020905b81548152906001019060200180831161094657829003601f168201915b5050505050908060020160009054906101000a900460ff16905083565b6000600360008473ffffffffffffffffffffffffffffffffffffffff1673ffffffffffffffffffffffffffffffffffffffff16815260200190815260200160002090508060020160009054906101000a900460ff1615610a15576040517f08c379a0000000000000000000000000000000000000000000000000000000008152600401610a0c90612a30565b60405180910390fd5b828160000160006101000a81548173ffffffffffffffffffffffffffffffffffffffff021916908373ffffffffffffffffffffffffffffffffffffffff16021790555081816001019081610a699190612bfc565b5060018160020160006101000a81548160ff021916908315150217905550600080815480929190610a9990612916565b91905055506001839080600181540180825580915050600190039060005260206000200160009091909190916101000a81548173ffffffffffffffffffffffffffffffffffffffff021916908373ffffffffffffffffffffffffffffffffffffffff1602179055508273ffffffffffffffffffffffffffffffffffffffff167fcd01559a6bb952358fd75732d1b0722f0b5a507abe65c390bc972be0150211c860405160405180910390a2505050565b600080548210610b8e576040517f08c379a0000000000000000000000000000000000000000000000000000000008152600401610b8590612d1a565b60405180910390fd5b6000805b600180549050811015610c6c57600060018281548110610bb557610bb4612884565b5b9060005260206000200160009054906101000a900473ffffffffffffffffffffffffffffffffffffffff169050600360008273ffffffffffffffffffffffffffffffffffffffff1673ffffffffffffffffffffffffffffffffffffffff16815260200190815260200160002060020160009054906101000a900460ff1615610c5857848303610c4957809350505050610ca8565b8280610c5490612916565b9350505b508080610c6490612916565b915050610b92565b506040517f08c379a0000000000000000000000000000000000000000000000000000000008152600401610c9f90612d86565b60405180910390fd5b919050565b600260003373ffffffffffffffffffffffffffffffffffffffff1673ffffffffffffffffffffffffffffffffffffffff16815260200190815260200160002060070160009054906101000a900460ff16610d3c576040517f08c379a0000000000000000000000000000000000000000000000000000000008152600401610d3390612734565b60405180910390fd5b600360008273ffffffffffffffffffffffffffffffffffffffff1673ffffffffffffffffffffffffffffffffffffffff16815260200190815260200160002060020160009054906101000a900460ff16610dcb576040517f08c379a0000000000000000000000000000000000000000000000000000000008152600401610dc2906127a0565b60405180910390fd5b600260003373ffffffffffffffffffffffffffffffffffffffff1673ffffffffffffffffffffffffffffffffffffffff16815260200190815260200160002060080160008273ffffffffffffffffffffffffffffffffffffffff1673ffffffffffffffffffffffffffffffffffffffff16815260200190815260200160002060009054906101000a900460ff16610e97576040517f08c379a0000000000000000000000000000000000000000000000000000000008152600401610e8e90612df2565b60405180910390fd5b6000600260003373ffffffffffffffffffffffffffffffffffffffff1673ffffffffffffffffffffffffffffffffffffffff16815260200190815260200160002060080160008373ffffffffffffffffffffffffffffffffffffffff1673ffffffffffffffffffffffffffffffffffffffff16815260200190815260200160002060006101000a81548160ff0219169083151502179055508073ffffffffffffffffffffffffffffffffffffffff163373ffffffffffffffffffffffffffffffffffffffff167f825c8be24eb0df19500f63e86c29e7d0d951e73056b889b891d85e40938d9b6e60405160405180910390a350565b6000600260003373ffffffffffffffffffffffffffffffffffffffff1673ffffffffffffffffffffffffffffffffffffffff168152602001908152602001600020905087816000019081610fe09190612bfc565b5086816001019081610ff29190612bfc565b50858160020190816110049190612bfc565b50848160030190816110169190612bfc565b50838160040190816110289190612bfc565b508281600501908161103a9190612bfc565b508181600601908161104c9190612bfc565b5060018160070160006101000a81548160ff0219169083151502179055503373ffffffffffffffffffffffffffffffffffffffff167f19ef9a4877199f89440a26acb26895ec02ed86f2df1aeaa90dc18041b892f71f60405160405180910390a25050505050505050565b60026020528060005260406000206000915090508060000180546110da9061298d565b80601f01602080910402602001604051908101604052809291908181526020018280546111069061298d565b80156111535780601f1061112857610100808354040283529160200191611153565b820191906000526020600020905b81548152906001019060200180831161113657829003601f168201915b5050505050908060010180546111689061298d565b80601f01602080910402602001604051908101604052809291908181526020018280546111949061298d565b80156111e15780601f106111b6576101008083540402835291602001916111e1565b820191906000526020600020905b8154815290600101906020018083116111c457829003601f168201915b5050505050908060020180546111f69061298d565b80601f01602080910402602001604051908101604052809291908181526020018280546112229061298d565b801561126f5780601f106112445761010080835404028352916020019161126f565b820191906000526020600020905b81548152906001019060200180831161125257829003601f168201915b5050505050908060030180546112849061298d565b80601f01602080910402602001604051908101604052809291908181526020018280546112b09061298d565b80156112fd5780601f106112d2576101008083540402835291602001916112fd565b820191906000526020600020905b8154815290600101906020018083116112e057829003601f168201915b5050505050908060040180546113129061298d565b80601f016020809104026020016040519081016040528092919081815260200182805461133e9061298d565b801561138b5780601f106113605761010080835404028352916020019161138b565b820191906000526020600020905b81548152906001019060200180831161136e57829003601f168201915b5050505050908060050180546113a09061298d565b80601f01602080910402602001604051908101604052809291908181526020018280546113cc9061298d565b80156114195780601f106113ee57610100808354040283529160200191611419565b820191906000526020600020905b8154815290600101906020018083116113fc57829003601f168201915b50505050509080600601805461142e9061298d565b80601f016020809104026020016040519081016040528092919081815260200182805461145a9061298d565b80156114a75780601f1061147c576101008083540402835291602001916114a7565b820191906000526020600020905b81548152906001019060200180831161148a57829003601f168201915b5050505050908060070160009054906101000a900460ff16905088565b6000600260003373ffffffffffffffffffffffffffffffffffffffff1673ffffffffffffffffffffffffffffffffffffffff16815260200190815260200160002090508060070160009054906101000a900460ff16611558576040517f08c379a000000000000000000000000000000000000000000000000000000000815260040161154f90612734565b60405180910390fd5b878160000190816115699190612bfc565b508681600101908161157b9190612bfc565b508581600201908161158d9190612bfc565b508481600301908161159f9190612bfc565b50838160040190816115b19190612bfc565b50828160050190816115c39190612bfc565b50818160060190816115d59190612bfc565b503373ffffffffffffffffffffffffffffffffffffffff167f0163b5f10e25c839f35e6f2b201b31e88e17f49e6956232de5d2e6bbae3b78b860405160405180910390a25050505050505050565b60005481565b6060806060806060806060600073ffffffffffffffffffffffffffffffffffffffff168873ffffffffffffffffffffffffffffffffffffffff16036116ff57600260003373ffffffffffffffffffffffffffffffffffffffff1673ffffffffffffffffffffffffffffffffffffffff16815260200190815260200160002060070160009054906101000a900460ff166116f7576040517f08c379a00000000000000000000000000000000000000000000000000000000081526004016116ee90612734565b60405180910390fd5b33975061178f565b600260008973ffffffffffffffffffffffffffffffffffffffff1673ffffffffffffffffffffffffffffffffffffffff16815260200190815260200160002060070160009054906101000a900460ff1661178e576040517f08c379a000000000000000000000000000000000000000000000000000000000815260040161178590612734565b60405180910390fd5b5b8773ffffffffffffffffffffffffffffffffffffffff163373ffffffffffffffffffffffffffffffffffffffff1614806118525750600260008973ffffffffffffffffffffffffffffffffffffffff1673ffffffffffffffffffffffffffffffffffffffff16815260200190815260200160002060080160003373ffffffffffffffffffffffffffffffffffffffff1673ffffffffffffffffffffffffffffffffffffffff16815260200190815260200160002060009054906101000a900460ff165b611891576040517f08c379a000000000000000000000000000000000000000000000000000000000815260040161188890612e5e565b60405180910390fd5b6000600260008a73ffffffffffffffffffffffffffffffffffffffff1673ffffffffffffffffffffffffffffffffffffffff1681526020019081526020016000209050806000018160010182600201836003018460040185600501866006018680546118fc9061298d565b80601f01602080910402602001604051908101604052809291908181526020018280546119289061298d565b80156119755780601f1061194a57610100808354040283529160200191611975565b820191906000526020600020905b81548152906001019060200180831161195857829003601f168201915b505050505096508580546119889061298d565b80601f01602080910402602001604051908101604052809291908181526020018280546119b49061298d565b8015611a015780601f106119d657610100808354040283529160200191611a01565b820191906000526020600020905b8154815290600101906020018083116119e457829003601f168201915b50505050509550848054611a149061298d565b80601f0160208091040260200160405190810160405280929190818152602001828054611a409061298d565b8015611a8d5780601f10611a6257610100808354040283529160200191611a8d565b820191906000526020600020905b815481529060010190602001808311611a7057829003601f168201915b50505050509450838054611aa09061298d565b80601f0160208091040260200160405190810160405280929190818152602001828054611acc9061298d565b8015611b195780601f10611aee57610100808354040283529160200191611b19565b820191906000526020600020905b815481529060010190602001808311611afc57829003601f168201915b50505050509350828054611b2c9061298d565b80601f0160208091040260200160405190810160405280929190818152602001828054611b589061298d565b8015611ba55780601f10611b7a57610100808354040283529160200191611ba5565b820191906000526020600020905b815481529060010190602001808311611b8857829003601f168201915b50505050509250818054611bb89061298d565b80601f0160208091040260200160405190810160405280929190818152602001828054611be49061298d565b8015611c315780601f10611c0657610100808354040283529160200191611c31565b820191906000526020600020905b815481529060010190602001808311611c1457829003601f168201915b50505050509150808054611c449061298d565b80601f0160208091040260200160405190810160405280929190818152602001828054611c709061298d565b8015611cbd5780601f10611c9257610100808354040283529160200191611cbd565b820191906000526020600020905b815481529060010190602001808311611ca057829003601f168201915b50505050509050975097509750975097509750975050919395979092949650565b60018181548110611cee57600080fd5b906000526020600020016000915054906101000a900473ffffffffffffffffffffffffffffffffffffffff1681565b6060600260003373ffffffffffffffffffffffffffffffffffffffff1673ffffffffffffffffffffffffffffffffffffffff16815260200190815260200160002060070160009054906101000a900460ff16611dae576040517f08c379a0000000000000000000000000000000000000000000000000000000008152600401611da590612734565b60405180910390fd5b6000805467ffffffffffffffff811115611dcb57611dca612124565b5b604051908082528060200260200182016040528015611df95781602001602082028036833780820191505090505b5090506000805b600054811015611f1a576000611e1582610b49565b9050600260003373ffffffffffffffffffffffffffffffffffffffff1673ffffffffffffffffffffffffffffffffffffffff16815260200190815260200160002060080160008273ffffffffffffffffffffffffffffffffffffffff1673ffffffffffffffffffffffffffffffffffffffff16815260200190815260200160002060009054906101000a900460ff1615611f065780848481518110611ebd57611ebc612884565b5b602002602001019073ffffffffffffffffffffffffffffffffffffffff16908173ffffffffffffffffffffffffffffffffffffffff16815250508280611f0290612916565b9350505b508080611f1290612916565b915050611e00565b50808252819250505090565b508054611f329061298d565b6000825580601f10611f445750611f63565b601f016020900490600052602060002090810190611f629190611f66565b5b50565b5b80821115611f7f576000816000905550600101611f67565b5090565b6000604051905090565b600080fd5b600080fd5b600073ffffffffffffffffffffffffffffffffffffffff82169050919050565b6000611fc282611f97565b9050919050565b611fd281611fb7565b8114611fdd57600080fd5b50565b600081359050611fef81611fc9565b92915050565b60006020828403121561200b5761200a611f8d565b5b600061201984828501611fe0565b91505092915050565b61202b81611fb7565b82525050565b600081519050919050565b600082825260208201905092915050565b60005b8381101561206b578082015181840152602081019050612050565b60008484015250505050565b6000601f19601f8301169050919050565b600061209382612031565b61209d818561203c565b93506120ad81856020860161204d565b6120b681612077565b840191505092915050565b60008115159050919050565b6120d6816120c1565b82525050565b60006060820190506120f16000830186612022565b81810360208301526121038185612088565b905061211260408301846120cd565b949350505050565b600080fd5b600080fd5b7f4e487b7100000000000000000000000000000000000000000000000000000000600052604160045260246000fd5b61215c82612077565b810181811067ffffffffffffffff8211171561217b5761217a612124565b5b80604052505050565b600061218e611f83565b905061219a8282612153565b919050565b600067ffffffffffffffff8211156121ba576121b9612124565b5b6121c382612077565b9050602081019050919050565b82818337600083830152505050565b60006121f26121ed8461219f565b612184565b90508281526020810184848401111561220e5761220d61211f565b5b6122198482856121d0565b509392505050565b600082601f8301126122365761223561211a565b5b81356122468482602086016121df565b91505092915050565b6000806040838503121561226657612265611f8d565b5b600061227485828601611fe0565b925050602083013567ffffffffffffffff81111561229557612294611f92565b5b6122a185828601612221565b9150509250929050565b6000819050919050565b6122be816122ab565b81146122c957600080fd5b50565b6000813590506122db816122b5565b92915050565b6000602082840312156122f7576122f6611f8d565b5b6000612305848285016122cc565b91505092915050565b60006020820190506123236000830184612022565b92915050565b600080600080600080600060e0888a03121561234857612347611f8d565b5b600088013567ffffffffffffffff81111561236657612365611f92565b5b6123728a828b01612221565b975050602088013567ffffffffffffffff81111561239357612392611f92565b5b61239f8a828b01612221565b965050604088013567ffffffffffffffff8111156123c0576123bf611f92565b5b6123cc8a828b01612221565b955050606088013567ffffffffffffffff8111156123ed576123ec611f92565b5b6123f98a828b01612221565b945050608088013567ffffffffffffffff81111561241a57612419611f92565b5b6124268a828b01612221565b93505060a088013567ffffffffffffffff81111561244757612446611f92565b5b6124538a828b01612221565b92505060c088013567ffffffffffffffff81111561247457612473611f92565b5b6124808a828b01612221565b91505092959891949750929550565b60006101008201905081810360008301526124aa818b612088565b905081810360208301526124be818a612088565b905081810360408301526124d28189612088565b905081810360608301526124e68188612088565b905081810360808301526124fa8187612088565b905081810360a083015261250e8186612088565b905081810360c08301526125228185612088565b905061253160e08301846120cd565b9998505050505050505050565b612547816122ab565b82525050565b6000602082019050612562600083018461253e565b92915050565b600060e0820190508181036000830152612582818a612088565b905081810360208301526125968189612088565b905081810360408301526125aa8188612088565b905081810360608301526125be8187612088565b905081810360808301526125d28186612088565b905081810360a08301526125e68185612088565b905081810360c08301526125fa8184612088565b905098975050505050505050565b600081519050919050565b600082825260208201905092915050565b6000819050602082019050919050565b61263d81611fb7565b82525050565b600061264f8383612634565b60208301905092915050565b6000602082019050919050565b600061267382612608565b61267d8185612613565b935061268883612624565b8060005b838110156126b95781516126a08882612643565b97506126ab8361265b565b92505060018101905061268c565b5085935050505092915050565b600060208201905081810360008301526126e08184612668565b905092915050565b7f55736572206e6f7420666f756e64000000000000000000000000000000000000600082015250565b600061271e600e8361203c565b9150612729826126e8565b602082019050919050565b6000602082019050818103600083015261274d81612711565b9050919050565b7f536572766963652050726f7669646572206e6f74207265676973746572656400600082015250565b600061278a601f8361203c565b915061279582612754565b602082019050919050565b600060208201905081810360008301526127b98161277d565b9050919050565b7f41636365737320616c7265616479206772616e74656400000000000000000000600082015250565b60006127f660168361203c565b9150612801826127c0565b602082019050919050565b60006020820190508181036000830152612825816127e9565b9050919050565b7f4e487b7100000000000000000000000000000000000000000000000000000000600052601160045260246000fd5b6000612866826122ab565b9150600082036128795761287861282c565b5b600182039050919050565b7f4e487b7100000000000000000000000000000000000000000000000000000000600052603260045260246000fd5b60006128be826122ab565b91506128c9836122ab565b92508282039050818111156128e1576128e061282c565b5b92915050565b7f4e487b7100000000000000000000000000000000000000000000000000000000600052603160045260246000fd5b6000612921826122ab565b91507fffffffffffffffffffffffffffffffffffffffffffffffffffffffffffffffff82036129535761295261282c565b5b600182019050919050565b7f4e487b7100000000000000000000000000000000000000000000000000000000600052602260045260246000fd5b600060028204905060018216806129a557607f821691505b6020821081036129b8576129b761295e565b5b50919050565b7f536572766963652050726f766964657220697320616c7265616479207265676960008201527f7374657265640000000000000000000000000000000000000000000000000000602082015250565b6000612a1a60268361203c565b9150612a25826129be565b604082019050919050565b60006020820190508181036000830152612a4981612a0d565b9050919050565b60008190508160005260206000209050919050565b60006020601f8301049050919050565b600082821b905092915050565b600060088302612ab27fffffffffffffffffffffffffffffffffffffffffffffffffffffffffffffffff82612a75565b612abc8683612a75565b95508019841693508086168417925050509392505050565b6000819050919050565b6000612af9612af4612aef846122ab565b612ad4565b6122ab565b9050919050565b6000819050919050565b612b1383612ade565b612b27612b1f82612b00565b848454612a82565b825550505050565b600090565b612b3c612b2f565b612b47818484612b0a565b505050565b5b81811015612b6b57612b60600082612b34565b600181019050612b4d565b5050565b601f821115612bb057612b8181612a50565b612b8a84612a65565b81016020851015612b99578190505b612bad612ba585612a65565b830182612b4c565b50505b505050565b600082821c905092915050565b6000612bd360001984600802612bb5565b1980831691505092915050565b6000612bec8383612bc2565b9150826002028217905092915050565b612c0582612031565b67ffffffffffffffff811115612c1e57612c1d612124565b5b612c28825461298d565b612c33828285612b6f565b600060209050601f831160018114612c665760008415612c54578287015190505b612c5e8582612be0565b865550612cc6565b601f198416612c7486612a50565b60005b82811015612c9c57848901518255600182019150602085019450602081019050612c77565b86831015612cb95784890151612cb5601f891682612bc2565b8355505b6001600288020188555050505b505050505050565b7f496e646578206f7574206f6620626f756e647300000000000000000000000000600082015250565b6000612d0460138361203c565b9150612d0f82612cce565b602082019050919050565b60006020820190508181036000830152612d3381612cf7565b9050919050565b7f536572766963652070726f7669646572206e6f7420666f756e64000000000000600082015250565b6000612d70601a8361203c565b9150612d7b82612d3a565b602082019050919050565b60006020820190508181036000830152612d9f81612d63565b9050919050565b7f416363657373206e6f74206772616e7465640000000000000000000000000000600082015250565b6000612ddc60128361203c565b9150612de782612da6565b602082019050919050565b60006020820190508181036000830152612e0b81612dcf565b9050919050565b7f4163636573732064656e69656400000000000000000000000000000000000000600082015250565b6000612e48600d8361203c565b9150612e5382612e12565b602082019050919050565b60006020820190508181036000830152612e7781612e3b565b905091905056fea264697066735822122082ea127e066ba736a94eebbbeec057a1378663c6cab8a9c4206a6ca461c18dc264736f6c63430008130033",
  "devdoc": {
    "kind": "dev",
    "methods": {},
    "version": 1
  },
  "userdoc": {
    "kind": "user",
    "methods": {},
    "version": 1
  },
  "storageLayout": {
    "storage": [
      {
        "astId": 3,
        "contract": "contracts/DigitalIdentityManagement.sol:DigitalIdentityManagement",
        "label": "serviceProvidersCount",
        "offset": 0,
        "slot": "0",
        "type": "t_uint256"
      },
      {
        "astId": 6,
        "contract": "contracts/DigitalIdentityManagement.sol:DigitalIdentityManagement",
        "label": "serviceProviderAddresses",
        "offset": 0,
        "slot": "1",
        "type": "t_array(t_address)dyn_storage"
      },
      {
        "astId": 39,
        "contract": "contracts/DigitalIdentityManagement.sol:DigitalIdentityManagement",
        "label": "users",
        "offset": 0,
        "slot": "2",
        "type": "t_mapping(t_address,t_struct(User)27_storage)"
      },
      {
        "astId": 44,
        "contract": "contracts/DigitalIdentityManagement.sol:DigitalIdentityManagement",
        "label": "serviceProviders",
        "offset": 0,
        "slot": "3",
        "type": "t_mapping(t_address,t_struct(ServiceProvider)34_storage)"
      }
    ],
    "types": {
      "t_address": {
        "encoding": "inplace",
        "label": "address",
        "numberOfBytes": "20"
      },
      "t_array(t_address)dyn_storage": {
        "base": "t_address",
        "encoding": "dynamic_array",
        "label": "address[]",
        "numberOfBytes": "32"
      },
      "t_bool": {
        "encoding": "inplace",
        "label": "bool",
        "numberOfBytes": "1"
      },
      "t_mapping(t_address,t_bool)": {
        "encoding": "mapping",
        "key": "t_address",
        "label": "mapping(address => bool)",
        "numberOfBytes": "32",
        "value": "t_bool"
      },
      "t_mapping(t_address,t_struct(ServiceProvider)34_storage)": {
        "encoding": "mapping",
        "key": "t_address",
        "label": "mapping(address => struct DigitalIdentityManagement.ServiceProvider)",
        "numberOfBytes": "32",
        "value": "t_struct(ServiceProvider)34_storage"
      },
      "t_mapping(t_address,t_struct(User)27_storage)": {
        "encoding": "mapping",
        "key": "t_address",
        "label": "mapping(address => struct DigitalIdentityManagement.User)",
        "numberOfBytes": "32",
        "value": "t_struct(User)27_storage"
      },
      "t_string_storage": {
        "encoding": "bytes",
        "label": "string",
        "numberOfBytes": "32"
      },
      "t_struct(ServiceProvider)34_storage": {
        "encoding": "inplace",
        "label": "struct DigitalIdentityManagement.ServiceProvider",
        "members": [
          {
            "astId": 29,
            "contract": "contracts/DigitalIdentityManagement.sol:DigitalIdentityManagement",
            "label": "serviceProviderAddress",
            "offset": 0,
            "slot": "0",
            "type": "t_address"
          },
          {
            "astId": 31,
            "contract": "contracts/DigitalIdentityManagement.sol:DigitalIdentityManagement",
            "label": "serviceProviderName",
            "offset": 0,
            "slot": "1",
            "type": "t_string_storage"
          },
          {
            "astId": 33,
            "contract": "contracts/DigitalIdentityManagement.sol:DigitalIdentityManagement",
            "label": "isRegistered",
            "offset": 0,
            "slot": "2",
            "type": "t_bool"
          }
        ],
        "numberOfBytes": "96"
      },
      "t_struct(User)27_storage": {
        "encoding": "inplace",
        "label": "struct DigitalIdentityManagement.User",
        "members": [
          {
            "astId": 8,
            "contract": "contracts/DigitalIdentityManagement.sol:DigitalIdentityManagement",
            "label": "user_FirstName",
            "offset": 0,
            "slot": "0",
            "type": "t_string_storage"
          },
          {
            "astId": 10,
            "contract": "contracts/DigitalIdentityManagement.sol:DigitalIdentityManagement",
            "label": "user_MiddleName",
            "offset": 0,
            "slot": "1",
            "type": "t_string_storage"
          },
          {
            "astId": 12,
            "contract": "contracts/DigitalIdentityManagement.sol:DigitalIdentityManagement",
            "label": "user_LastName",
            "offset": 0,
            "slot": "2",
            "type": "t_string_storage"
          },
          {
            "astId": 14,
            "contract": "contracts/DigitalIdentityManagement.sol:DigitalIdentityManagement",
            "label": "user_Email",
            "offset": 0,
            "slot": "3",
            "type": "t_string_storage"
          },
          {
            "astId": 16,
            "contract": "contracts/DigitalIdentityManagement.sol:DigitalIdentityManagement",
            "label": "user_dob",
            "offset": 0,
            "slot": "4",
            "type": "t_string_storage"
          },
          {
            "astId": 18,
            "contract": "contracts/DigitalIdentityManagement.sol:DigitalIdentityManagement",
            "label": "user_pno",
            "offset": 0,
            "slot": "5",
            "type": "t_string_storage"
          },
          {
            "astId": 20,
            "contract": "contracts/DigitalIdentityManagement.sol:DigitalIdentityManagement",
            "label": "userPhysicalAddress",
            "offset": 0,
            "slot": "6",
            "type": "t_string_storage"
          },
          {
            "astId": 22,
            "contract": "contracts/DigitalIdentityManagement.sol:DigitalIdentityManagement",
            "label": "isUserSet",
            "offset": 0,
            "slot": "7",
            "type": "t_bool"
          },
          {
            "astId": 26,
            "contract": "contracts/DigitalIdentityManagement.sol:DigitalIdentityManagement",
            "label": "userAccessList",
            "offset": 0,
            "slot": "8",
            "type": "t_mapping(t_address,t_bool)"
          }
        ],
        "numberOfBytes": "288"
      },
      "t_uint256": {
        "encoding": "inplace",
        "label": "uint256",
        "numberOfBytes": "32"
      }
    }
  }
}