{
  "address": "0x5FbDB2315678afecb367f032d93F642f64180aa3",
  "abi": [
    {
      "anonymous": false,
      "inputs": [
        {
          "indexed": true,
          "internalType": "address",
          "name": "userAddress",
          "type": "address"
        },
        {
          "indexed": true,
          "internalType": "address",
          "name": "serviceProviderAddress",
          "type": "address"
        }
      ],
      "name": "AccessGranted",
      "type": "event"
    },
    {
      "anonymous": false,
      "inputs": [
        {
          "indexed": true,
          "internalType": "address",
          "name": "userAddress",
          "type": "address"
        },
        {
          "indexed": true,
          "internalType": "address",
          "name": "serviceProviderAddress",
          "type": "address"
        }
      ],
      "name": "AccessRevoked",
      "type": "event"
    },
    {
      "anonymous": false,
      "inputs": [
        {
          "indexed": true,
          "internalType": "address",
          "name": "serviceProviderAddress",
          "type": "address"
        }
      ],
      "name": "ServiceProviderAdded",
      "type": "event"
    },
    {
      "anonymous": false,
      "inputs": [
        {
          "indexed": true,
          "internalType": "address",
          "name": "serviceProviderAddress",
          "type": "address"
        }
      ],
      "name": "ServiceProviderRemoved",
      "type": "event"
    },
    {
      "anonymous": false,
      "inputs": [
        {
          "indexed": true,
          "internalType": "address",
          "name": "userAddress",
          "type": "address"
        }
      ],
      "name": "UserAdded",
      "type": "event"
    },
    {
      "anonymous": false,
      "inputs": [
        {
          "indexed": true,
          "internalType": "address",
          "name": "userAddress",
          "type": "address"
        }
      ],
      "name": "UserUpdated",
      "type": "event"
    },
    {
      "inputs": [
        {
          "internalType": "address",
          "name": "_serviceProviderAddress",
          "type": "address"
        },
        {
          "internalType": "string",
          "name": "_serviceProviderName",
          "type": "string"
        }
      ],
      "name": "addServiceProvider",
      "outputs": [],
      "stateMutability": "nonpayable",
      "type": "function"
    },
    {
      "inputs": [
        {
          "internalType": "string",
          "name": "_firstName",
          "type": "string"
        },
        {
          "internalType": "string",
          "name": "_middleName",
          "type": "string"
        },
        {
          "internalType": "string",
          "name": "_lastName",
          "type": "string"
        },
        {
          "internalType": "string",
          "name": "_email",
          "type": "string"
        },
        {
          "internalType": "string",
          "name": "_dob",
          "type": "string"
        },
        {
          "internalType": "string",
          "name": "_pno",
          "type": "string"
        },
        {
          "internalType": "string",
          "name": "_physicalAddress",
          "type": "string"
        }
      ],
      "name": "addUser",
      "outputs": [],
      "stateMutability": "nonpayable",
      "type": "function"
    },
    {
      "inputs": [],
      "name": "getUserAccessList",
      "outputs": [
        {
          "internalType": "address[]",
          "name": "",
          "type": "address[]"
        }
      ],
      "stateMutability": "view",
      "type": "function"
    },
    {
      "inputs": [
        {
          "internalType": "address",
          "name": "_userAddress",
          "type": "address"
        }
      ],
      "name": "getUserDetails",
      "outputs": [
        {
          "internalType": "string",
          "name": "user_FirstName",
          "type": "string"
        },
        {
          "internalType": "string",
          "name": "user_MiddleName",
          "type": "string"
        },
        {
          "internalType": "string",
          "name": "user_LastName",
          "type": "string"
        },
        {
          "internalType": "string",
          "name": "user_Email",
          "type": "string"
        },
        {
          "internalType": "string",
          "name": "user_dob",
          "type": "string"
        },
        {
          "internalType": "string",
          "name": "user_pno",
          "type": "string"
        },
        {
          "internalType": "string",
          "name": "userPhysicalAddress",
          "type": "string"
        }
      ],
      "stateMutability": "view",
      "type": "function"
    },
    {
      "inputs": [
        {
          "internalType": "address",
          "name": "_serviceProviderAddress",
          "type": "address"
        }
      ],
      "name": "grantAccess",
      "outputs": [],
      "stateMutability": "nonpayable",
      "type": "function"
    },
    {
      "inputs": [
        {
          "internalType": "address",
          "name": "_serviceProviderAddress",
          "type": "address"
        }
      ],
      "name": "provideDetails",
      "outputs": [
        {
          "internalType": "string",
          "name": "user_FirstName",
          "type": "string"
        },
        {
          "internalType": "string",
          "name": "user_MiddleName",
          "type": "string"
        },
        {
          "internalType": "string",
          "name": "user_LastName",
          "type": "string"
        },
        {
          "internalType": "string",
          "name": "user_Email",
          "type": "string"
        },
        {
          "internalType": "string",
          "name": "user_dob",
          "type": "string"
        },
        {
          "internalType": "string",
          "name": "user_pno",
          "type": "string"
        },
        {
          "internalType": "string",
          "name": "userPhysicalAddress",
          "type": "string"
        }
      ],
      "stateMutability": "view",
      "type": "function"
    },
    {
      "inputs": [
        {
          "internalType": "address",
          "name": "_serviceProviderAddress",
          "type": "address"
        }
      ],
      "name": "removeServiceProvider",
      "outputs": [],
      "stateMutability": "nonpayable",
      "type": "function"
    },
    {
      "inputs": [
        {
          "internalType": "address",
          "name": "_serviceProviderAddress",
          "type": "address"
        }
      ],
      "name": "revokeAccess",
      "outputs": [],
      "stateMutability": "nonpayable",
      "type": "function"
    },
    {
      "inputs": [
        {
          "internalType": "uint256",
          "name": "",
          "type": "uint256"
        }
      ],
      "name": "serviceProviderAddresses",
      "outputs": [
        {
          "internalType": "address",
          "name": "",
          "type": "address"
        }
      ],
      "stateMutability": "view",
      "type": "function"
    },
    {
      "inputs": [
        {
          "internalType": "address",
          "name": "",
          "type": "address"
        }
      ],
      "name": "serviceProviders",
      "outputs": [
        {
          "internalType": "address",
          "name": "serviceProviderAddress",
          "type": "address"
        },
        {
          "internalType": "string",
          "name": "serviceProviderName",
          "type": "string"
        },
        {
          "internalType": "bool",
          "name": "isRegistered",
          "type": "bool"
        }
      ],
      "stateMutability": "view",
      "type": "function"
    },
    {
      "inputs": [
        {
          "internalType": "uint256",
          "name": "index",
          "type": "uint256"
        }
      ],
      "name": "serviceProvidersByIndex",
      "outputs": [
        {
          "internalType": "address",
          "name": "",
          "type": "address"
        }
      ],
      "stateMutability": "view",
      "type": "function"
    },
    {
      "inputs": [],
      "name": "serviceProvidersCount",
      "outputs": [
        {
          "internalType": "uint256",
          "name": "",
          "type": "uint256"
        }
      ],
      "stateMutability": "view",
      "type": "function"
    },
    {
      "inputs": [
        {
          "internalType": "string",
          "name": "_firstName",
          "type": "string"
        },
        {
          "internalType": "string",
          "name": "_middleName",
          "type": "string"
        },
        {
          "internalType": "string",
          "name": "_lastName",
          "type": "string"
        },
        {
          "internalType": "string",
          "name": "_email",
          "type": "string"
        },
        {
          "internalType": "string",
          "name": "_dob",
          "type": "string"
        },
        {
          "internalType": "string",
          "name": "_pno",
          "type": "string"
        },
        {
          "internalType": "string",
          "name": "_physicalAddress",
          "type": "string"
        }
      ],
      "name": "updateUser",
      "outputs": [],
      "stateMutability": "nonpayable",
      "type": "function"
    },
    {
      "inputs": [
        {
          "internalType": "address",
          "name": "",
          "type": "address"
        }
      ],
      "name": "users",
      "outputs": [
        {
          "internalType": "string",
          "name": "user_FirstName",
          "type": "string"
        },
        {
          "internalType": "string",
          "name": "user_MiddleName",
          "type": "string"
        },
        {
          "internalType": "string",
          "name": "user_LastName",
          "type": "string"
        },
        {
          "internalType": "string",
          "name": "user_Email",
          "type": "string"
        },
        {
          "internalType": "string",
          "name": "user_dob",
          "type": "string"
        },
        {
          "internalType": "string",
          "name": "user_pno",
          "type": "string"
        },
        {
          "internalType": "string",
          "name": "userPhysicalAddress",
          "type": "string"
        },
        {
          "internalType": "bool",
          "name": "isUserSet",
          "type": "bool"
        }
      ],
      "stateMutability": "view",
      "type": "function"
    }
  ],
  "transactionHash": "0xecf4ab44b65aee0f5ef6d4b324f904d1d7fd577eec9b836a9c88a5837796e84b",
  "args": [],
  "numDeployments": 1,
  "solcInputHash": "c5c9b7f6614503bf9e687dc1053fd8d2",
  "bytecode": "0x608060405234801561001057600080fd5b506134b8806100206000396000f3fe608060405234801561001057600080fd5b50600436106100ea5760003560e01c8063894595471161008c578063c3392b1611610066578063c3392b1614610266578063cc3d967b14610284578063fb155e89146102ba578063fe38bd70146102ea576100ea565b806389459547146101f7578063a87430ba14610213578063ad44e42c1461024a576100ea565b80636a0f4dd0116100c85780636a0f4dd01461015d5780636eaf50e51461018f5780638142b0e6146101ab57806385e68531146101db576100ea565b80630ae5e739146100ef578063444d0df11461010b578063653764d814610127575b600080fd5b610109600480360381019061010491906125f9565b610308565b005b610125600480360381019061012091906125f9565b610559565b005b610141600480360381019061013c91906125f9565b610863565b60405161015497969594939291906126b6565b60405180910390f35b610177600480360381019061017291906125f9565b610ea5565b60405161018693929190612780565b60405180910390f35b6101a960048036038101906101a491906128f3565b610f84565b005b6101c560048036038101906101c09190612985565b61114d565b6040516101d291906129b2565b60405180910390f35b6101f560048036038101906101f091906125f9565b6112b1565b005b610211600480360381019061020c91906129cd565b611590565b005b61022d600480360381019061022891906125f9565b6116bb565b604051610241989796959493929190612b33565b60405180910390f35b610264600480360381019061025f91906129cd565b611ac8565b005b61026e611c27565b60405161027b9190612bf1565b60405180910390f35b61029e600480360381019061029991906125f9565b611c2d565b6040516102b197969594939291906126b6565b60405180910390f35b6102d460048036038101906102cf9190612985565b6122e2565b6040516102e191906129b2565b60405180910390f35b6102f2612321565b6040516102ff9190612cca565b60405180910390f35b600360008273ffffffffffffffffffffffffffffffffffffffff1673ffffffffffffffffffffffffffffffffffffffff16815260200190815260200160002060020160009054906101000a900460ff16610397576040517f08c379a000000000000000000000000000000000000000000000000000000000815260040161038e90612d38565b60405180910390fd5b600260003373ffffffffffffffffffffffffffffffffffffffff1673ffffffffffffffffffffffffffffffffffffffff16815260200190815260200160002060080160008273ffffffffffffffffffffffffffffffffffffffff1673ffffffffffffffffffffffffffffffffffffffff16815260200190815260200160002060009054906101000a900460ff1615610464576040517f08c379a000000000000000000000000000000000000000000000000000000000815260040161045b90612da4565b60405180910390fd5b6001600260003373ffffffffffffffffffffffffffffffffffffffff1673ffffffffffffffffffffffffffffffffffffffff16815260200190815260200160002060080160008373ffffffffffffffffffffffffffffffffffffffff1673ffffffffffffffffffffffffffffffffffffffff16815260200190815260200160002060006101000a81548160ff0219169083151502179055508073ffffffffffffffffffffffffffffffffffffffff163373ffffffffffffffffffffffffffffffffffffffff167f9f520b3bfc56d06f7065d10b4683b3f57ac8895d5026cd176dee95ce1454cb8d60405160405180910390a350565b6000600360008373ffffffffffffffffffffffffffffffffffffffff1673ffffffffffffffffffffffffffffffffffffffff16815260200190815260200160002090508060020160009054906101000a900460ff166105ed576040517f08c379a00000000000000000000000000000000000000000000000000000000081526004016105e490612d38565b60405180910390fd5b600360008373ffffffffffffffffffffffffffffffffffffffff1673ffffffffffffffffffffffffffffffffffffffff168152602001908152602001600020600080820160006101000a81549073ffffffffffffffffffffffffffffffffffffffff0219169055600182016000610664919061252a565b6002820160006101000a81549060ff0219169055505060008081548092919061068c90612df3565b919050555060005b60018054905081101561081b578273ffffffffffffffffffffffffffffffffffffffff16600182815481106106cc576106cb612e1c565b5b9060005260206000200160009054906101000a900473ffffffffffffffffffffffffffffffffffffffff1673ffffffffffffffffffffffffffffffffffffffff16036108085760018080805490506107249190612e4b565b8154811061073557610734612e1c565b5b9060005260206000200160009054906101000a900473ffffffffffffffffffffffffffffffffffffffff166001828154811061077457610773612e1c565b5b9060005260206000200160006101000a81548173ffffffffffffffffffffffffffffffffffffffff021916908373ffffffffffffffffffffffffffffffffffffffff16021790555060018054806107ce576107cd612e7f565b5b6001900381819060005260206000200160006101000a81549073ffffffffffffffffffffffffffffffffffffffff0219169055905561081b565b808061081390612eae565b915050610694565b508173ffffffffffffffffffffffffffffffffffffffff167f8c8907774e957df66385c0630b7abbfc436cd160107e11d6944214489d5f865d60405160405180910390a25050565b6060806060806060806060600260003373ffffffffffffffffffffffffffffffffffffffff1673ffffffffffffffffffffffffffffffffffffffff16815260200190815260200160002060070160009054906101000a900460ff166108fd576040517f08c379a00000000000000000000000000000000000000000000000000000000081526004016108f490612f42565b60405180910390fd5b600360008973ffffffffffffffffffffffffffffffffffffffff1673ffffffffffffffffffffffffffffffffffffffff16815260200190815260200160002060020160009054906101000a900460ff1661098c576040517f08c379a000000000000000000000000000000000000000000000000000000000815260040161098390612d38565b60405180910390fd5b600260003373ffffffffffffffffffffffffffffffffffffffff1673ffffffffffffffffffffffffffffffffffffffff16815260200190815260200160002060080160008973ffffffffffffffffffffffffffffffffffffffff1673ffffffffffffffffffffffffffffffffffffffff16815260200190815260200160002060009054906101000a900460ff16610a58576040517f08c379a0000000000000000000000000000000000000000000000000000000008152600401610a4f90612fae565b60405180910390fd5b6000600260003373ffffffffffffffffffffffffffffffffffffffff1673ffffffffffffffffffffffffffffffffffffffff168152602001908152602001600020905080600001816001018260020183600301846004018560050186600601868054610ac390612ffd565b80601f0160208091040260200160405190810160405280929190818152602001828054610aef90612ffd565b8015610b3c5780601f10610b1157610100808354040283529160200191610b3c565b820191906000526020600020905b815481529060010190602001808311610b1f57829003601f168201915b50505050509650858054610b4f90612ffd565b80601f0160208091040260200160405190810160405280929190818152602001828054610b7b90612ffd565b8015610bc85780601f10610b9d57610100808354040283529160200191610bc8565b820191906000526020600020905b815481529060010190602001808311610bab57829003601f168201915b50505050509550848054610bdb90612ffd565b80601f0160208091040260200160405190810160405280929190818152602001828054610c0790612ffd565b8015610c545780601f10610c2957610100808354040283529160200191610c54565b820191906000526020600020905b815481529060010190602001808311610c3757829003601f168201915b50505050509450838054610c6790612ffd565b80601f0160208091040260200160405190810160405280929190818152602001828054610c9390612ffd565b8015610ce05780601f10610cb557610100808354040283529160200191610ce0565b820191906000526020600020905b815481529060010190602001808311610cc357829003601f168201915b50505050509350828054610cf390612ffd565b80601f0160208091040260200160405190810160405280929190818152602001828054610d1f90612ffd565b8015610d6c5780601f10610d4157610100808354040283529160200191610d6c565b820191906000526020600020905b815481529060010190602001808311610d4f57829003601f168201915b50505050509250818054610d7f90612ffd565b80601f0160208091040260200160405190810160405280929190818152602001828054610dab90612ffd565b8015610df85780601f10610dcd57610100808354040283529160200191610df8565b820191906000526020600020905b815481529060010190602001808311610ddb57829003601f168201915b50505050509150808054610e0b90612ffd565b80601f0160208091040260200160405190810160405280929190818152602001828054610e3790612ffd565b8015610e845780601f10610e5957610100808354040283529160200191610e84565b820191906000526020600020905b815481529060010190602001808311610e6757829003601f168201915b50505050509050975097509750975097509750975050919395979092949650565b60036020528060005260406000206000915090508060000160009054906101000a900473ffffffffffffffffffffffffffffffffffffffff1690806001018054610eee90612ffd565b80601f0160208091040260200160405190810160405280929190818152602001828054610f1a90612ffd565b8015610f675780601f10610f3c57610100808354040283529160200191610f67565b820191906000526020600020905b815481529060010190602001808311610f4a57829003601f168201915b5050505050908060020160009054906101000a900460ff16905083565b6000600360008473ffffffffffffffffffffffffffffffffffffffff1673ffffffffffffffffffffffffffffffffffffffff16815260200190815260200160002090508060020160009054906101000a900460ff1615611019576040517f08c379a0000000000000000000000000000000000000000000000000000000008152600401611010906130a0565b60405180910390fd5b828160000160006101000a81548173ffffffffffffffffffffffffffffffffffffffff021916908373ffffffffffffffffffffffffffffffffffffffff1602179055508181600101908161106d919061326c565b5060018160020160006101000a81548160ff02191690831515021790555060008081548092919061109d90612eae565b91905055506001839080600181540180825580915050600190039060005260206000200160009091909190916101000a81548173ffffffffffffffffffffffffffffffffffffffff021916908373ffffffffffffffffffffffffffffffffffffffff1602179055508273ffffffffffffffffffffffffffffffffffffffff167fcd01559a6bb952358fd75732d1b0722f0b5a507abe65c390bc972be0150211c860405160405180910390a2505050565b600080548210611192576040517f08c379a00000000000000000000000000000000000000000000000000000000081526004016111899061338a565b60405180910390fd5b6000805b600180549050811015611270576000600182815481106111b9576111b8612e1c565b5b9060005260206000200160009054906101000a900473ffffffffffffffffffffffffffffffffffffffff169050600360008273ffffffffffffffffffffffffffffffffffffffff1673ffffffffffffffffffffffffffffffffffffffff16815260200190815260200160002060020160009054906101000a900460ff161561125c5784830361124d578093505050506112ac565b828061125890612eae565b9350505b50808061126890612eae565b915050611196565b506040517f08c379a00000000000000000000000000000000000000000000000000000000081526004016112a3906133f6565b60405180910390fd5b919050565b600260003373ffffffffffffffffffffffffffffffffffffffff1673ffffffffffffffffffffffffffffffffffffffff16815260200190815260200160002060070160009054906101000a900460ff16611340576040517f08c379a000000000000000000000000000000000000000000000000000000000815260040161133790612f42565b60405180910390fd5b600360008273ffffffffffffffffffffffffffffffffffffffff1673ffffffffffffffffffffffffffffffffffffffff16815260200190815260200160002060020160009054906101000a900460ff166113cf576040517f08c379a00000000000000000000000000000000000000000000000000000000081526004016113c690612d38565b60405180910390fd5b600260003373ffffffffffffffffffffffffffffffffffffffff1673ffffffffffffffffffffffffffffffffffffffff16815260200190815260200160002060080160008273ffffffffffffffffffffffffffffffffffffffff1673ffffffffffffffffffffffffffffffffffffffff16815260200190815260200160002060009054906101000a900460ff1661149b576040517f08c379a000000000000000000000000000000000000000000000000000000000815260040161149290613462565b60405180910390fd5b6000600260003373ffffffffffffffffffffffffffffffffffffffff1673ffffffffffffffffffffffffffffffffffffffff16815260200190815260200160002060080160008373ffffffffffffffffffffffffffffffffffffffff1673ffffffffffffffffffffffffffffffffffffffff16815260200190815260200160002060006101000a81548160ff0219169083151502179055508073ffffffffffffffffffffffffffffffffffffffff163373ffffffffffffffffffffffffffffffffffffffff167f825c8be24eb0df19500f63e86c29e7d0d951e73056b889b891d85e40938d9b6e60405160405180910390a350565b6000600260003373ffffffffffffffffffffffffffffffffffffffff1673ffffffffffffffffffffffffffffffffffffffff1681526020019081526020016000209050878160000190816115e4919061326c565b50868160010190816115f6919061326c565b5085816002019081611608919061326c565b508481600301908161161a919061326c565b508381600401908161162c919061326c565b508281600501908161163e919061326c565b5081816006019081611650919061326c565b5060018160070160006101000a81548160ff0219169083151502179055503373ffffffffffffffffffffffffffffffffffffffff167f19ef9a4877199f89440a26acb26895ec02ed86f2df1aeaa90dc18041b892f71f60405160405180910390a25050505050505050565b60026020528060005260406000206000915090508060000180546116de90612ffd565b80601f016020809104026020016040519081016040528092919081815260200182805461170a90612ffd565b80156117575780601f1061172c57610100808354040283529160200191611757565b820191906000526020600020905b81548152906001019060200180831161173a57829003601f168201915b50505050509080600101805461176c90612ffd565b80601f016020809104026020016040519081016040528092919081815260200182805461179890612ffd565b80156117e55780601f106117ba576101008083540402835291602001916117e5565b820191906000526020600020905b8154815290600101906020018083116117c857829003601f168201915b5050505050908060020180546117fa90612ffd565b80601f016020809104026020016040519081016040528092919081815260200182805461182690612ffd565b80156118735780601f1061184857610100808354040283529160200191611873565b820191906000526020600020905b81548152906001019060200180831161185657829003601f168201915b50505050509080600301805461188890612ffd565b80601f01602080910402602001604051908101604052809291908181526020018280546118b490612ffd565b80156119015780601f106118d657610100808354040283529160200191611901565b820191906000526020600020905b8154815290600101906020018083116118e457829003601f168201915b50505050509080600401805461191690612ffd565b80601f016020809104026020016040519081016040528092919081815260200182805461194290612ffd565b801561198f5780601f106119645761010080835404028352916020019161198f565b820191906000526020600020905b81548152906001019060200180831161197257829003601f168201915b5050505050908060050180546119a490612ffd565b80601f01602080910402602001604051908101604052809291908181526020018280546119d090612ffd565b8015611a1d5780601f106119f257610100808354040283529160200191611a1d565b820191906000526020600020905b815481529060010190602001808311611a0057829003601f168201915b505050505090806006018054611a3290612ffd565b80601f0160208091040260200160405190810160405280929190818152602001828054611a5e90612ffd565b8015611aab5780601f10611a8057610100808354040283529160200191611aab565b820191906000526020600020905b815481529060010190602001808311611a8e57829003601f168201915b5050505050908060070160009054906101000a900460ff16905088565b6000600260003373ffffffffffffffffffffffffffffffffffffffff1673ffffffffffffffffffffffffffffffffffffffff16815260200190815260200160002090508060070160009054906101000a900460ff16611b5c576040517f08c379a0000000000000000000000000000000000000000000000000000000008152600401611b5390612f42565b60405180910390fd5b87816000019081611b6d919061326c565b5086816001019081611b7f919061326c565b5085816002019081611b91919061326c565b5084816003019081611ba3919061326c565b5083816004019081611bb5919061326c565b5082816005019081611bc7919061326c565b5081816006019081611bd9919061326c565b503373ffffffffffffffffffffffffffffffffffffffff167f0163b5f10e25c839f35e6f2b201b31e88e17f49e6956232de5d2e6bbae3b78b860405160405180910390a25050505050505050565b60005481565b6060806060806060806060600073ffffffffffffffffffffffffffffffffffffffff168873ffffffffffffffffffffffffffffffffffffffff1603611d0357600260003373ffffffffffffffffffffffffffffffffffffffff1673ffffffffffffffffffffffffffffffffffffffff16815260200190815260200160002060070160009054906101000a900460ff16611cfb576040517f08c379a0000000000000000000000000000000000000000000000000000000008152600401611cf290612f42565b60405180910390fd5b339750611d93565b600260008973ffffffffffffffffffffffffffffffffffffffff1673ffffffffffffffffffffffffffffffffffffffff16815260200190815260200160002060070160009054906101000a900460ff16611d92576040517f08c379a0000000000000000000000000000000000000000000000000000000008152600401611d8990612f42565b60405180910390fd5b5b8773ffffffffffffffffffffffffffffffffffffffff163373ffffffffffffffffffffffffffffffffffffffff161480611e565750600260008973ffffffffffffffffffffffffffffffffffffffff1673ffffffffffffffffffffffffffffffffffffffff16815260200190815260200160002060080160003373ffffffffffffffffffffffffffffffffffffffff1673ffffffffffffffffffffffffffffffffffffffff16815260200190815260200160002060009054906101000a900460ff165b611e95576040517f08c379a0000000000000000000000000000000000000000000000000000000008152600401611e8c90612fae565b60405180910390fd5b6000600260008a73ffffffffffffffffffffffffffffffffffffffff1673ffffffffffffffffffffffffffffffffffffffff168152602001908152602001600020905080600001816001018260020183600301846004018560050186600601868054611f0090612ffd565b80601f0160208091040260200160405190810160405280929190818152602001828054611f2c90612ffd565b8015611f795780601f10611f4e57610100808354040283529160200191611f79565b820191906000526020600020905b815481529060010190602001808311611f5c57829003601f168201915b50505050509650858054611f8c90612ffd565b80601f0160208091040260200160405190810160405280929190818152602001828054611fb890612ffd565b80156120055780601f10611fda57610100808354040283529160200191612005565b820191906000526020600020905b815481529060010190602001808311611fe857829003601f168201915b5050505050955084805461201890612ffd565b80601f016020809104026020016040519081016040528092919081815260200182805461204490612ffd565b80156120915780601f1061206657610100808354040283529160200191612091565b820191906000526020600020905b81548152906001019060200180831161207457829003601f168201915b505050505094508380546120a490612ffd565b80601f01602080910402602001604051908101604052809291908181526020018280546120d090612ffd565b801561211d5780601f106120f25761010080835404028352916020019161211d565b820191906000526020600020905b81548152906001019060200180831161210057829003601f168201915b5050505050935082805461213090612ffd565b80601f016020809104026020016040519081016040528092919081815260200182805461215c90612ffd565b80156121a95780601f1061217e576101008083540402835291602001916121a9565b820191906000526020600020905b81548152906001019060200180831161218c57829003601f168201915b505050505092508180546121bc90612ffd565b80601f01602080910402602001604051908101604052809291908181526020018280546121e890612ffd565b80156122355780601f1061220a57610100808354040283529160200191612235565b820191906000526020600020905b81548152906001019060200180831161221857829003601f168201915b5050505050915080805461224890612ffd565b80601f016020809104026020016040519081016040528092919081815260200182805461227490612ffd565b80156122c15780601f10612296576101008083540402835291602001916122c1565b820191906000526020600020905b8154815290600101906020018083116122a457829003601f168201915b50505050509050975097509750975097509750975050919395979092949650565b600181815481106122f257600080fd5b906000526020600020016000915054906101000a900473ffffffffffffffffffffffffffffffffffffffff1681565b6060600260003373ffffffffffffffffffffffffffffffffffffffff1673ffffffffffffffffffffffffffffffffffffffff16815260200190815260200160002060070160009054906101000a900460ff166123b2576040517f08c379a00000000000000000000000000000000000000000000000000000000081526004016123a990612f42565b60405180910390fd5b6000805467ffffffffffffffff8111156123cf576123ce6127c8565b5b6040519080825280602002602001820160405280156123fd5781602001602082028036833780820191505090505b5090506000805b60005481101561251e5760006124198261114d565b9050600260003373ffffffffffffffffffffffffffffffffffffffff1673ffffffffffffffffffffffffffffffffffffffff16815260200190815260200160002060080160008273ffffffffffffffffffffffffffffffffffffffff1673ffffffffffffffffffffffffffffffffffffffff16815260200190815260200160002060009054906101000a900460ff161561250a57808484815181106124c1576124c0612e1c565b5b602002602001019073ffffffffffffffffffffffffffffffffffffffff16908173ffffffffffffffffffffffffffffffffffffffff1681525050828061250690612eae565b9350505b50808061251690612eae565b915050612404565b50808252819250505090565b50805461253690612ffd565b6000825580601f106125485750612567565b601f016020900490600052602060002090810190612566919061256a565b5b50565b5b8082111561258357600081600090555060010161256b565b5090565b6000604051905090565b600080fd5b600080fd5b600073ffffffffffffffffffffffffffffffffffffffff82169050919050565b60006125c68261259b565b9050919050565b6125d6816125bb565b81146125e157600080fd5b50565b6000813590506125f3816125cd565b92915050565b60006020828403121561260f5761260e612591565b5b600061261d848285016125e4565b91505092915050565b600081519050919050565b600082825260208201905092915050565b60005b83811015612660578082015181840152602081019050612645565b60008484015250505050565b6000601f19601f8301169050919050565b600061268882612626565b6126928185612631565b93506126a2818560208601612642565b6126ab8161266c565b840191505092915050565b600060e08201905081810360008301526126d0818a61267d565b905081810360208301526126e4818961267d565b905081810360408301526126f8818861267d565b9050818103606083015261270c818761267d565b90508181036080830152612720818661267d565b905081810360a0830152612734818561267d565b905081810360c0830152612748818461267d565b905098975050505050505050565b61275f816125bb565b82525050565b60008115159050919050565b61277a81612765565b82525050565b60006060820190506127956000830186612756565b81810360208301526127a7818561267d565b90506127b66040830184612771565b949350505050565b600080fd5b600080fd5b7f4e487b7100000000000000000000000000000000000000000000000000000000600052604160045260246000fd5b6128008261266c565b810181811067ffffffffffffffff8211171561281f5761281e6127c8565b5b80604052505050565b6000612832612587565b905061283e82826127f7565b919050565b600067ffffffffffffffff82111561285e5761285d6127c8565b5b6128678261266c565b9050602081019050919050565b82818337600083830152505050565b600061289661289184612843565b612828565b9050828152602081018484840111156128b2576128b16127c3565b5b6128bd848285612874565b509392505050565b600082601f8301126128da576128d96127be565b5b81356128ea848260208601612883565b91505092915050565b6000806040838503121561290a57612909612591565b5b6000612918858286016125e4565b925050602083013567ffffffffffffffff81111561293957612938612596565b5b612945858286016128c5565b9150509250929050565b6000819050919050565b6129628161294f565b811461296d57600080fd5b50565b60008135905061297f81612959565b92915050565b60006020828403121561299b5761299a612591565b5b60006129a984828501612970565b91505092915050565b60006020820190506129c76000830184612756565b92915050565b600080600080600080600060e0888a0312156129ec576129eb612591565b5b600088013567ffffffffffffffff811115612a0a57612a09612596565b5b612a168a828b016128c5565b975050602088013567ffffffffffffffff811115612a3757612a36612596565b5b612a438a828b016128c5565b965050604088013567ffffffffffffffff811115612a6457612a63612596565b5b612a708a828b016128c5565b955050606088013567ffffffffffffffff811115612a9157612a90612596565b5b612a9d8a828b016128c5565b945050608088013567ffffffffffffffff811115612abe57612abd612596565b5b612aca8a828b016128c5565b93505060a088013567ffffffffffffffff811115612aeb57612aea612596565b5b612af78a828b016128c5565b92505060c088013567ffffffffffffffff811115612b1857612b17612596565b5b612b248a828b016128c5565b91505092959891949750929550565b6000610100820190508181036000830152612b4e818b61267d565b90508181036020830152612b62818a61267d565b90508181036040830152612b76818961267d565b90508181036060830152612b8a818861267d565b90508181036080830152612b9e818761267d565b905081810360a0830152612bb2818661267d565b905081810360c0830152612bc6818561267d565b9050612bd560e0830184612771565b9998505050505050505050565b612beb8161294f565b82525050565b6000602082019050612c066000830184612be2565b92915050565b600081519050919050565b600082825260208201905092915050565b6000819050602082019050919050565b612c41816125bb565b82525050565b6000612c538383612c38565b60208301905092915050565b6000602082019050919050565b6000612c7782612c0c565b612c818185612c17565b9350612c8c83612c28565b8060005b83811015612cbd578151612ca48882612c47565b9750612caf83612c5f565b925050600181019050612c90565b5085935050505092915050565b60006020820190508181036000830152612ce48184612c6c565b905092915050565b7f536572766963652050726f7669646572206e6f74207265676973746572656400600082015250565b6000612d22601f83612631565b9150612d2d82612cec565b602082019050919050565b60006020820190508181036000830152612d5181612d15565b9050919050565b7f41636365737320616c7265616479206772616e74656400000000000000000000600082015250565b6000612d8e601683612631565b9150612d9982612d58565b602082019050919050565b60006020820190508181036000830152612dbd81612d81565b9050919050565b7f4e487b7100000000000000000000000000000000000000000000000000000000600052601160045260246000fd5b6000612dfe8261294f565b915060008203612e1157612e10612dc4565b5b600182039050919050565b7f4e487b7100000000000000000000000000000000000000000000000000000000600052603260045260246000fd5b6000612e568261294f565b9150612e618361294f565b9250828203905081811115612e7957612e78612dc4565b5b92915050565b7f4e487b7100000000000000000000000000000000000000000000000000000000600052603160045260246000fd5b6000612eb98261294f565b91507fffffffffffffffffffffffffffffffffffffffffffffffffffffffffffffffff8203612eeb57612eea612dc4565b5b600182019050919050565b7f55736572206e6f7420666f756e64000000000000000000000000000000000000600082015250565b6000612f2c600e83612631565b9150612f3782612ef6565b602082019050919050565b60006020820190508181036000830152612f5b81612f1f565b9050919050565b7f4163636573732064656e69656400000000000000000000000000000000000000600082015250565b6000612f98600d83612631565b9150612fa382612f62565b602082019050919050565b60006020820190508181036000830152612fc781612f8b565b9050919050565b7f4e487b7100000000000000000000000000000000000000000000000000000000600052602260045260246000fd5b6000600282049050600182168061301557607f821691505b60208210810361302857613027612fce565b5b50919050565b7f536572766963652050726f766964657220697320616c7265616479207265676960008201527f7374657265640000000000000000000000000000000000000000000000000000602082015250565b600061308a602683612631565b91506130958261302e565b604082019050919050565b600060208201905081810360008301526130b98161307d565b9050919050565b60008190508160005260206000209050919050565b60006020601f8301049050919050565b600082821b905092915050565b6000600883026131227fffffffffffffffffffffffffffffffffffffffffffffffffffffffffffffffff826130e5565b61312c86836130e5565b95508019841693508086168417925050509392505050565b6000819050919050565b600061316961316461315f8461294f565b613144565b61294f565b9050919050565b6000819050919050565b6131838361314e565b61319761318f82613170565b8484546130f2565b825550505050565b600090565b6131ac61319f565b6131b781848461317a565b505050565b5b818110156131db576131d06000826131a4565b6001810190506131bd565b5050565b601f821115613220576131f1816130c0565b6131fa846130d5565b81016020851015613209578190505b61321d613215856130d5565b8301826131bc565b50505b505050565b600082821c905092915050565b600061324360001984600802613225565b1980831691505092915050565b600061325c8383613232565b9150826002028217905092915050565b61327582612626565b67ffffffffffffffff81111561328e5761328d6127c8565b5b6132988254612ffd565b6132a38282856131df565b600060209050601f8311600181146132d657600084156132c4578287015190505b6132ce8582613250565b865550613336565b601f1984166132e4866130c0565b60005b8281101561330c578489015182556001820191506020850194506020810190506132e7565b868310156133295784890151613325601f891682613232565b8355505b6001600288020188555050505b505050505050565b7f496e646578206f7574206f6620626f756e647300000000000000000000000000600082015250565b6000613374601383612631565b915061337f8261333e565b602082019050919050565b600060208201905081810360008301526133a381613367565b9050919050565b7f536572766963652070726f7669646572206e6f7420666f756e64000000000000600082015250565b60006133e0601a83612631565b91506133eb826133aa565b602082019050919050565b6000602082019050818103600083015261340f816133d3565b9050919050565b7f416363657373206e6f74206772616e7465640000000000000000000000000000600082015250565b600061344c601283612631565b915061345782613416565b602082019050919050565b6000602082019050818103600083015261347b8161343f565b905091905056fea2646970667358221220fcff6a9e779777fec0d4ae705f3cc5d6ba42118a134649fbf47fc5d93e17e31164736f6c63430008130033",
  "devdoc": {
    "kind": "dev",
    "methods": {},
    "version": 1
  },
  "userdoc": {
    "kind": "user",
    "methods": {},
    "version": 1
  },
  "storageLayout": {
    "storage": [
      {
        "astId": 3,
        "contract": "contracts/DigitalIdentityManagement.sol:DigitalIdentityManagement",
        "label": "serviceProvidersCount",
        "offset": 0,
        "slot": "0",
        "type": "t_uint256"
      },
      {
        "astId": 6,
        "contract": "contracts/DigitalIdentityManagement.sol:DigitalIdentityManagement",
        "label": "serviceProviderAddresses",
        "offset": 0,
        "slot": "1",
        "type": "t_array(t_address)dyn_storage"
      },
      {
        "astId": 39,
        "contract": "contracts/DigitalIdentityManagement.sol:DigitalIdentityManagement",
        "label": "users",
        "offset": 0,
        "slot": "2",
        "type": "t_mapping(t_address,t_struct(User)27_storage)"
      },
      {
        "astId": 44,
        "contract": "contracts/DigitalIdentityManagement.sol:DigitalIdentityManagement",
        "label": "serviceProviders",
        "offset": 0,
        "slot": "3",
        "type": "t_mapping(t_address,t_struct(ServiceProvider)34_storage)"
      }
    ],
    "types": {
      "t_address": {
        "encoding": "inplace",
        "label": "address",
        "numberOfBytes": "20"
      },
      "t_array(t_address)dyn_storage": {
        "base": "t_address",
        "encoding": "dynamic_array",
        "label": "address[]",
        "numberOfBytes": "32"
      },
      "t_bool": {
        "encoding": "inplace",
        "label": "bool",
        "numberOfBytes": "1"
      },
      "t_mapping(t_address,t_bool)": {
        "encoding": "mapping",
        "key": "t_address",
        "label": "mapping(address => bool)",
        "numberOfBytes": "32",
        "value": "t_bool"
      },
      "t_mapping(t_address,t_struct(ServiceProvider)34_storage)": {
        "encoding": "mapping",
        "key": "t_address",
        "label": "mapping(address => struct DigitalIdentityManagement.ServiceProvider)",
        "numberOfBytes": "32",
        "value": "t_struct(ServiceProvider)34_storage"
      },
      "t_mapping(t_address,t_struct(User)27_storage)": {
        "encoding": "mapping",
        "key": "t_address",
        "label": "mapping(address => struct DigitalIdentityManagement.User)",
        "numberOfBytes": "32",
        "value": "t_struct(User)27_storage"
      },
      "t_string_storage": {
        "encoding": "bytes",
        "label": "string",
        "numberOfBytes": "32"
      },
      "t_struct(ServiceProvider)34_storage": {
        "encoding": "inplace",
        "label": "struct DigitalIdentityManagement.ServiceProvider",
        "members": [
          {
            "astId": 29,
            "contract": "contracts/DigitalIdentityManagement.sol:DigitalIdentityManagement",
            "label": "serviceProviderAddress",
            "offset": 0,
            "slot": "0",
            "type": "t_address"
          },
          {
            "astId": 31,
            "contract": "contracts/DigitalIdentityManagement.sol:DigitalIdentityManagement",
            "label": "serviceProviderName",
            "offset": 0,
            "slot": "1",
            "type": "t_string_storage"
          },
          {
            "astId": 33,
            "contract": "contracts/DigitalIdentityManagement.sol:DigitalIdentityManagement",
            "label": "isRegistered",
            "offset": 0,
            "slot": "2",
            "type": "t_bool"
          }
        ],
        "numberOfBytes": "96"
      },
      "t_struct(User)27_storage": {
        "encoding": "inplace",
        "label": "struct DigitalIdentityManagement.User",
        "members": [
          {
            "astId": 8,
            "contract": "contracts/DigitalIdentityManagement.sol:DigitalIdentityManagement",
            "label": "user_FirstName",
            "offset": 0,
            "slot": "0",
            "type": "t_string_storage"
          },
          {
            "astId": 10,
            "contract": "contracts/DigitalIdentityManagement.sol:DigitalIdentityManagement",
            "label": "user_MiddleName",
            "offset": 0,
            "slot": "1",
            "type": "t_string_storage"
          },
          {
            "astId": 12,
            "contract": "contracts/DigitalIdentityManagement.sol:DigitalIdentityManagement",
            "label": "user_LastName",
            "offset": 0,
            "slot": "2",
            "type": "t_string_storage"
          },
          {
            "astId": 14,
            "contract": "contracts/DigitalIdentityManagement.sol:DigitalIdentityManagement",
            "label": "user_Email",
            "offset": 0,
            "slot": "3",
            "type": "t_string_storage"
          },
          {
            "astId": 16,
            "contract": "contracts/DigitalIdentityManagement.sol:DigitalIdentityManagement",
            "label": "user_dob",
            "offset": 0,
            "slot": "4",
            "type": "t_string_storage"
          },
          {
            "astId": 18,
            "contract": "contracts/DigitalIdentityManagement.sol:DigitalIdentityManagement",
            "label": "user_pno",
            "offset": 0,
            "slot": "5",
            "type": "t_string_storage"
          },
          {
            "astId": 20,
            "contract": "contracts/DigitalIdentityManagement.sol:DigitalIdentityManagement",
            "label": "userPhysicalAddress",
            "offset": 0,
            "slot": "6",
            "type": "t_string_storage"
          },
          {
            "astId": 22,
            "contract": "contracts/DigitalIdentityManagement.sol:DigitalIdentityManagement",
            "label": "isUserSet",
            "offset": 0,
            "slot": "7",
            "type": "t_bool"
          },
          {
            "astId": 26,
            "contract": "contracts/DigitalIdentityManagement.sol:DigitalIdentityManagement",
            "label": "userAccessList",
            "offset": 0,
            "slot": "8",
            "type": "t_mapping(t_address,t_bool)"
          }
        ],
        "numberOfBytes": "288"
      },
      "t_uint256": {
        "encoding": "inplace",
        "label": "uint256",
        "numberOfBytes": "32"
      }
    }
  }
}